{
  "_format": "hh-sol-artifact-1",
  "contractName": "DonorContract",
  "sourceName": "contracts/DonorContract.sol",
  "abi": [
    {
      "inputs": [],
      "stateMutability": "nonpayable",
      "type": "constructor"
    },
    {
      "anonymous": false,
      "inputs": [
        {
          "indexed": true,
          "internalType": "uint256",
          "name": "campaignId",
          "type": "uint256"
        }
      ],
      "name": "CampaignCancelled",
      "type": "event"
    },
    {
      "anonymous": false,
      "inputs": [
        {
          "indexed": true,
          "internalType": "uint256",
          "name": "campaignId",
          "type": "uint256"
        },
        {
          "indexed": true,
          "internalType": "address",
          "name": "creator",
          "type": "address"
        },
        {
          "indexed": false,
          "internalType": "string",
          "name": "name",
          "type": "string"
        },
        {
          "indexed": false,
          "internalType": "uint256",
          "name": "goalAmount",
          "type": "uint256"
        },
        {
          "indexed": false,
          "internalType": "uint256",
          "name": "deadline",
          "type": "uint256"
        }
      ],
      "name": "CampaignCreated",
      "type": "event"
    },
    {
      "anonymous": false,
      "inputs": [
        {
          "indexed": true,
          "internalType": "uint256",
          "name": "campaignId",
          "type": "uint256"
        },
        {
          "indexed": true,
          "internalType": "address",
          "name": "creator",
          "type": "address"
        }
      ],
      "name": "CampaignCreatorRoleGranted",
      "type": "event"
    },
    {
      "anonymous": false,
      "inputs": [
        {
          "indexed": true,
          "internalType": "uint256",
          "name": "campaignId",
          "type": "uint256"
        },
        {
          "indexed": true,
          "internalType": "address",
          "name": "donor",
          "type": "address"
        },
        {
          "indexed": false,
          "internalType": "address",
          "name": "token",
          "type": "address"
        },
        {
          "indexed": false,
          "internalType": "uint256",
          "name": "amount",
          "type": "uint256"
        }
      ],
      "name": "DonationMade",
      "type": "event"
    },
    {
      "anonymous": false,
      "inputs": [
        {
          "indexed": true,
          "internalType": "uint256",
          "name": "campaignId",
          "type": "uint256"
        },
        {
          "indexed": true,
          "internalType": "address",
          "name": "donor",
          "type": "address"
        },
        {
          "indexed": false,
          "internalType": "address",
          "name": "token",
          "type": "address"
        },
        {
          "indexed": false,
          "internalType": "uint256",
          "name": "amount",
          "type": "uint256"
        }
      ],
      "name": "DonationRefunded",
      "type": "event"
    },
    {
      "anonymous": false,
      "inputs": [
        {
          "indexed": true,
          "internalType": "uint256",
          "name": "campaignId",
          "type": "uint256"
        },
        {
          "indexed": true,
          "internalType": "address",
          "name": "creator",
          "type": "address"
        },
        {
          "indexed": false,
          "internalType": "address",
          "name": "token",
          "type": "address"
        },
        {
          "indexed": false,
          "internalType": "uint256",
          "name": "amount",
          "type": "uint256"
        }
      ],
      "name": "FundsWithdrawn",
      "type": "event"
    },
    {
      "anonymous": false,
      "inputs": [
        {
          "indexed": true,
          "internalType": "bytes32",
          "name": "role",
          "type": "bytes32"
        },
        {
          "indexed": true,
          "internalType": "bytes32",
          "name": "previousAdminRole",
          "type": "bytes32"
        },
        {
          "indexed": true,
          "internalType": "bytes32",
          "name": "newAdminRole",
          "type": "bytes32"
        }
      ],
      "name": "RoleAdminChanged",
      "type": "event"
    },
    {
      "anonymous": false,
      "inputs": [
        {
          "indexed": true,
          "internalType": "bytes32",
          "name": "role",
          "type": "bytes32"
        },
        {
          "indexed": true,
          "internalType": "address",
          "name": "account",
          "type": "address"
        },
        {
          "indexed": true,
          "internalType": "address",
          "name": "sender",
          "type": "address"
        }
      ],
      "name": "RoleGranted",
      "type": "event"
    },
    {
      "anonymous": false,
      "inputs": [
        {
          "indexed": true,
          "internalType": "bytes32",
          "name": "role",
          "type": "bytes32"
        },
        {
          "indexed": true,
          "internalType": "address",
          "name": "account",
          "type": "address"
        },
        {
          "indexed": true,
          "internalType": "address",
          "name": "sender",
          "type": "address"
        }
      ],
      "name": "RoleRevoked",
      "type": "event"
    },
    {
      "anonymous": false,
      "inputs": [
        {
          "indexed": true,
          "internalType": "address",
          "name": "token",
          "type": "address"
        },
        {
          "indexed": false,
          "internalType": "bool",
          "name": "allowed",
          "type": "bool"
        }
      ],
      "name": "TokenAllowed",
      "type": "event"
    },
    {
      "inputs": [],
      "name": "CAMPAIGN_CREATOR_ROLE",
      "outputs": [
        {
          "internalType": "bytes32",
          "name": "",
          "type": "bytes32"
        }
      ],
      "stateMutability": "view",
      "type": "function"
    },
    {
      "inputs": [],
      "name": "DEFAULT_ADMIN_ROLE",
      "outputs": [
        {
          "internalType": "bytes32",
          "name": "",
          "type": "bytes32"
        }
      ],
      "stateMutability": "view",
      "type": "function"
    },
    {
      "inputs": [],
      "name": "MAX_CAMPAIGN_DURATION",
      "outputs": [
        {
          "internalType": "uint256",
          "name": "",
          "type": "uint256"
        }
      ],
      "stateMutability": "view",
      "type": "function"
    },
    {
      "inputs": [],
      "name": "TOKEN_MANAGER_ROLE",
      "outputs": [
        {
          "internalType": "bytes32",
          "name": "",
          "type": "bytes32"
        }
      ],
      "stateMutability": "view",
      "type": "function"
    },
    {
      "inputs": [
        {
          "internalType": "address",
          "name": "",
          "type": "address"
        }
      ],
      "name": "allowedTokens",
      "outputs": [
        {
          "internalType": "bool",
          "name": "",
          "type": "bool"
        }
      ],
      "stateMutability": "view",
      "type": "function"
    },
    {
      "inputs": [
        {
          "internalType": "uint256",
          "name": "",
          "type": "uint256"
        }
      ],
      "name": "allowedTokensList",
      "outputs": [
        {
          "internalType": "address",
          "name": "",
          "type": "address"
        }
      ],
      "stateMutability": "view",
      "type": "function"
    },
    {
      "inputs": [
        {
          "internalType": "uint256",
          "name": "",
          "type": "uint256"
        },
        {
          "internalType": "uint256",
          "name": "",
          "type": "uint256"
        }
      ],
      "name": "campaignDonationHistory",
      "outputs": [
        {
          "internalType": "address",
          "name": "donor",
          "type": "address"
        },
        {
          "internalType": "uint256",
          "name": "amount",
          "type": "uint256"
        },
        {
          "internalType": "uint256",
          "name": "timestamp",
          "type": "uint256"
        }
      ],
      "stateMutability": "view",
      "type": "function"
    },
    {
      "inputs": [
        {
          "internalType": "uint256",
          "name": "",
          "type": "uint256"
        },
        {
          "internalType": "address",
          "name": "",
          "type": "address"
        }
      ],
      "name": "campaignDonations",
      "outputs": [
        {
          "internalType": "uint256",
          "name": "",
          "type": "uint256"
        }
      ],
      "stateMutability": "view",
      "type": "function"
    },
    {
      "inputs": [
        {
          "internalType": "uint256",
          "name": "",
          "type": "uint256"
        }
      ],
      "name": "campaignObject",
      "outputs": [
        {
          "internalType": "uint256",
          "name": "id",
          "type": "uint256"
        },
        {
          "internalType": "string",
          "name": "name",
          "type": "string"
        },
        {
          "internalType": "string",
          "name": "description",
          "type": "string"
        },
        {
          "internalType": "address",
          "name": "creator",
          "type": "address"
        },
        {
          "internalType": "uint256",
          "name": "goalAmount",
          "type": "uint256"
        },
        {
          "internalType": "uint256",
          "name": "totalRaised",
          "type": "uint256"
        },
        {
          "internalType": "uint256",
          "name": "amountWithdrawn",
          "type": "uint256"
        },
        {
          "internalType": "uint256",
          "name": "createdAt",
          "type": "uint256"
        },
        {
          "internalType": "uint256",
          "name": "deadline",
          "type": "uint256"
        },
        {
          "internalType": "bool",
          "name": "active",
          "type": "bool"
        },
        {
          "internalType": "bool",
          "name": "exists",
          "type": "bool"
        },
        {
          "internalType": "bool",
          "name": "withdrawalComplete",
          "type": "bool"
        },
        {
          "internalType": "bool",
          "name": "cancelled",
          "type": "bool"
        },
        {
          "internalType": "uint256",
          "name": "fundsWithdrawnAt",
          "type": "uint256"
        }
      ],
      "stateMutability": "view",
      "type": "function"
    },
    {
      "inputs": [
        {
          "internalType": "uint256",
          "name": "",
          "type": "uint256"
        }
      ],
      "name": "campaigns",
      "outputs": [
        {
          "internalType": "uint256",
          "name": "id",
          "type": "uint256"
        },
        {
          "internalType": "string",
          "name": "name",
          "type": "string"
        },
        {
          "internalType": "string",
          "name": "description",
          "type": "string"
        },
        {
          "internalType": "address",
          "name": "creator",
          "type": "address"
        },
        {
          "internalType": "uint256",
          "name": "goalAmount",
          "type": "uint256"
        },
        {
          "internalType": "uint256",
          "name": "totalRaised",
          "type": "uint256"
        },
        {
          "internalType": "uint256",
          "name": "amountWithdrawn",
          "type": "uint256"
        },
        {
          "internalType": "uint256",
          "name": "createdAt",
          "type": "uint256"
        },
        {
          "internalType": "uint256",
          "name": "deadline",
          "type": "uint256"
        },
        {
          "internalType": "bool",
          "name": "active",
          "type": "bool"
        },
        {
          "internalType": "bool",
          "name": "exists",
          "type": "bool"
        },
        {
          "internalType": "bool",
          "name": "withdrawalComplete",
          "type": "bool"
        },
        {
          "internalType": "bool",
          "name": "cancelled",
          "type": "bool"
        },
        {
          "internalType": "uint256",
          "name": "fundsWithdrawnAt",
          "type": "uint256"
        }
      ],
      "stateMutability": "view",
      "type": "function"
    },
    {
      "inputs": [
        {
          "internalType": "uint256",
          "name": "_campaignId",
          "type": "uint256"
        }
      ],
      "name": "cancelCampaign",
      "outputs": [],
      "stateMutability": "nonpayable",
      "type": "function"
    },
    {
      "inputs": [
        {
          "internalType": "string",
          "name": "_name",
          "type": "string"
        },
        {
          "internalType": "string",
          "name": "_description",
          "type": "string"
        },
        {
          "internalType": "uint256",
          "name": "_goalAmount",
          "type": "uint256"
        },
        {
          "internalType": "uint256",
          "name": "_durationInDays",
          "type": "uint256"
        }
      ],
      "name": "createCampaign",
      "outputs": [
        {
          "internalType": "uint256",
          "name": "",
          "type": "uint256"
        }
      ],
      "stateMutability": "nonpayable",
      "type": "function"
    },
    {
      "inputs": [
        {
          "internalType": "address",
          "name": "token",
          "type": "address"
        },
        {
          "internalType": "uint256",
          "name": "_campaignId",
          "type": "uint256"
        },
        {
          "internalType": "uint256",
          "name": "_amount",
          "type": "uint256"
        }
      ],
      "name": "donateToCampaign",
      "outputs": [
        {
          "internalType": "bool",
          "name": "",
          "type": "bool"
        }
      ],
      "stateMutability": "nonpayable",
      "type": "function"
    },
    {
      "inputs": [
        {
          "internalType": "uint256",
          "name": "",
          "type": "uint256"
        },
        {
          "internalType": "address",
          "name": "",
          "type": "address"
        },
        {
          "internalType": "address",
          "name": "",
          "type": "address"
        }
      ],
      "name": "donorContributions",
      "outputs": [
        {
          "internalType": "uint256",
          "name": "",
          "type": "uint256"
        }
      ],
      "stateMutability": "view",
      "type": "function"
    },
    {
      "inputs": [],
      "name": "getAllCampaigns",
      "outputs": [
        {
          "components": [
            {
              "internalType": "uint256",
              "name": "id",
              "type": "uint256"
            },
            {
              "internalType": "string",
              "name": "name",
              "type": "string"
            },
            {
              "internalType": "string",
              "name": "description",
              "type": "string"
            },
            {
              "internalType": "address",
              "name": "creator",
              "type": "address"
            },
            {
              "internalType": "uint256",
              "name": "goalAmount",
              "type": "uint256"
            },
            {
              "internalType": "uint256",
              "name": "totalRaised",
              "type": "uint256"
            },
            {
              "internalType": "uint256",
              "name": "amountWithdrawn",
              "type": "uint256"
            },
            {
              "internalType": "uint256",
              "name": "createdAt",
              "type": "uint256"
            },
            {
              "internalType": "uint256",
              "name": "deadline",
              "type": "uint256"
            },
            {
              "internalType": "bool",
              "name": "active",
              "type": "bool"
            },
            {
              "internalType": "bool",
              "name": "exists",
              "type": "bool"
            },
            {
              "internalType": "bool",
              "name": "withdrawalComplete",
              "type": "bool"
            },
            {
              "internalType": "bool",
              "name": "cancelled",
              "type": "bool"
            },
            {
              "internalType": "uint256",
              "name": "fundsWithdrawnAt",
              "type": "uint256"
            }
          ],
          "internalType": "struct DonorContract.Campaign[]",
          "name": "",
          "type": "tuple[]"
        }
      ],
      "stateMutability": "view",
      "type": "function"
    },
    {
      "inputs": [],
      "name": "getAllowedTokens",
      "outputs": [
        {
          "internalType": "address[]",
          "name": "",
          "type": "address[]"
        }
      ],
      "stateMutability": "view",
      "type": "function"
    },
    {
      "inputs": [
        {
          "internalType": "uint256",
          "name": "_campaignId",
          "type": "uint256"
        }
      ],
      "name": "getCampaignById",
      "outputs": [
        {
          "components": [
            {
              "internalType": "uint256",
              "name": "id",
              "type": "uint256"
            },
            {
              "internalType": "string",
              "name": "name",
              "type": "string"
            },
            {
              "internalType": "string",
              "name": "description",
              "type": "string"
            },
            {
              "internalType": "address",
              "name": "creator",
              "type": "address"
            },
            {
              "internalType": "uint256",
              "name": "goalAmount",
              "type": "uint256"
            },
            {
              "internalType": "uint256",
              "name": "totalRaised",
              "type": "uint256"
            },
            {
              "internalType": "uint256",
              "name": "amountWithdrawn",
              "type": "uint256"
            },
            {
              "internalType": "uint256",
              "name": "createdAt",
              "type": "uint256"
            },
            {
              "internalType": "uint256",
              "name": "deadline",
              "type": "uint256"
            },
            {
              "internalType": "bool",
              "name": "active",
              "type": "bool"
            },
            {
              "internalType": "bool",
              "name": "exists",
              "type": "bool"
            },
            {
              "internalType": "bool",
              "name": "withdrawalComplete",
              "type": "bool"
            },
            {
              "internalType": "bool",
              "name": "cancelled",
              "type": "bool"
            },
            {
              "internalType": "uint256",
              "name": "fundsWithdrawnAt",
              "type": "uint256"
            }
          ],
          "internalType": "struct DonorContract.Campaign",
          "name": "",
          "type": "tuple"
        }
      ],
      "stateMutability": "view",
      "type": "function"
    },
    {
      "inputs": [
        {
          "internalType": "uint256",
          "name": "_campaignId",
          "type": "uint256"
        }
      ],
      "name": "getCampaignCurrentBalance",
      "outputs": [
        {
          "internalType": "uint256",
          "name": "",
          "type": "uint256"
        }
      ],
      "stateMutability": "view",
      "type": "function"
    },
    {
      "inputs": [
        {
          "internalType": "uint256",
          "name": "_campaignId",
          "type": "uint256"
        }
      ],
      "name": "getCampaignDonations",
      "outputs": [
        {
          "components": [
            {
              "internalType": "address",
              "name": "donor",
              "type": "address"
            },
            {
              "internalType": "uint256",
              "name": "amount",
              "type": "uint256"
            },
            {
              "internalType": "uint256",
              "name": "timestamp",
              "type": "uint256"
            }
          ],
          "internalType": "struct DonorContract.Donation[]",
          "name": "",
          "type": "tuple[]"
        }
      ],
      "stateMutability": "view",
      "type": "function"
    },
    {
      "inputs": [
        {
          "internalType": "uint256",
          "name": "_campaignId",
          "type": "uint256"
        },
        {
          "internalType": "address",
          "name": "token",
          "type": "address"
        }
      ],
      "name": "getCampaignFundsByToken",
      "outputs": [
        {
          "internalType": "uint256",
          "name": "",
          "type": "uint256"
        }
      ],
      "stateMutability": "view",
      "type": "function"
    },
    {
      "inputs": [
        {
          "internalType": "uint256",
          "name": "_campaignId",
          "type": "uint256"
        }
      ],
      "name": "getCampaignProgress",
      "outputs": [
        {
          "internalType": "uint256",
          "name": "totalRaised",
          "type": "uint256"
        },
        {
          "internalType": "uint256",
          "name": "amountWithdrawn",
          "type": "uint256"
        },
        {
          "internalType": "uint256",
          "name": "currentBalance",
          "type": "uint256"
        },
        {
          "internalType": "uint256",
          "name": "goalAmount",
          "type": "uint256"
        },
        {
          "internalType": "bool",
          "name": "goalReached",
          "type": "bool"
        },
        {
          "internalType": "bool",
          "name": "withdrawalComplete",
          "type": "bool"
        }
      ],
      "stateMutability": "view",
      "type": "function"
    },
    {
      "inputs": [
        {
          "internalType": "uint256",
          "name": "_campaignId",
          "type": "uint256"
        }
      ],
      "name": "getCampaignTokenBalances",
      "outputs": [
        {
          "internalType": "address[]",
          "name": "",
          "type": "address[]"
        },
        {
          "internalType": "uint256[]",
          "name": "",
          "type": "uint256[]"
        }
      ],
      "stateMutability": "view",
      "type": "function"
    },
    {
      "inputs": [
        {
          "internalType": "bytes32",
          "name": "role",
          "type": "bytes32"
        }
      ],
      "name": "getRoleAdmin",
      "outputs": [
        {
          "internalType": "bytes32",
          "name": "",
          "type": "bytes32"
        }
      ],
      "stateMutability": "view",
      "type": "function"
    },
    {
      "inputs": [
        {
          "internalType": "bytes32",
          "name": "role",
          "type": "bytes32"
        },
        {
          "internalType": "uint256",
          "name": "index",
          "type": "uint256"
        }
      ],
      "name": "getRoleMember",
      "outputs": [
        {
          "internalType": "address",
          "name": "",
          "type": "address"
        }
      ],
      "stateMutability": "view",
      "type": "function"
    },
    {
      "inputs": [
        {
          "internalType": "bytes32",
          "name": "role",
          "type": "bytes32"
        }
      ],
      "name": "getRoleMemberCount",
      "outputs": [
        {
          "internalType": "uint256",
          "name": "",
          "type": "uint256"
        }
      ],
      "stateMutability": "view",
      "type": "function"
    },
    {
      "inputs": [
        {
          "internalType": "bytes32",
          "name": "role",
          "type": "bytes32"
        },
        {
          "internalType": "address",
          "name": "account",
          "type": "address"
        }
      ],
      "name": "grantRole",
      "outputs": [],
      "stateMutability": "nonpayable",
      "type": "function"
    },
    {
      "inputs": [
        {
          "internalType": "bytes32",
          "name": "role",
          "type": "bytes32"
        },
        {
          "internalType": "address",
          "name": "account",
          "type": "address"
        }
      ],
      "name": "hasRole",
      "outputs": [
        {
          "internalType": "bool",
          "name": "",
          "type": "bool"
        }
      ],
      "stateMutability": "view",
      "type": "function"
    },
    {
      "inputs": [
        {
          "internalType": "uint256",
          "name": "_campaignId",
          "type": "uint256"
        }
      ],
      "name": "isCampaignSuccessful",
      "outputs": [
        {
          "internalType": "bool",
          "name": "",
          "type": "bool"
        }
      ],
      "stateMutability": "view",
      "type": "function"
    },
    {
      "inputs": [
        {
          "internalType": "uint256",
          "name": "_campaignId",
          "type": "uint256"
        },
        {
          "internalType": "address",
          "name": "token",
          "type": "address"
        }
      ],
      "name": "refundDonation",
      "outputs": [],
      "stateMutability": "nonpayable",
      "type": "function"
    },
    {
      "inputs": [
        {
          "internalType": "address",
          "name": "token",
          "type": "address"
        }
      ],
      "name": "removeAllowedToken",
      "outputs": [],
      "stateMutability": "nonpayable",
      "type": "function"
    },
    {
      "inputs": [
        {
          "internalType": "bytes32",
          "name": "role",
          "type": "bytes32"
        },
        {
          "internalType": "address",
          "name": "account",
          "type": "address"
        }
      ],
      "name": "renounceRole",
      "outputs": [],
      "stateMutability": "nonpayable",
      "type": "function"
    },
    {
      "inputs": [
        {
          "internalType": "bytes32",
          "name": "role",
          "type": "bytes32"
        },
        {
          "internalType": "address",
          "name": "account",
          "type": "address"
        }
      ],
      "name": "revokeRole",
      "outputs": [],
      "stateMutability": "nonpayable",
      "type": "function"
    },
    {
      "inputs": [
        {
          "internalType": "address",
          "name": "token",
          "type": "address"
        },
        {
          "internalType": "bool",
          "name": "allowed",
          "type": "bool"
        }
      ],
      "name": "setAllowedToken",
      "outputs": [],
      "stateMutability": "nonpayable",
      "type": "function"
    },
    {
      "inputs": [
        {
          "internalType": "bytes4",
          "name": "interfaceId",
          "type": "bytes4"
        }
      ],
      "name": "supportsInterface",
      "outputs": [
        {
          "internalType": "bool",
          "name": "",
          "type": "bool"
        }
      ],
      "stateMutability": "view",
      "type": "function"
    },
    {
      "inputs": [
        {
          "internalType": "uint256",
          "name": "",
          "type": "uint256"
        },
        {
          "internalType": "address",
          "name": "",
          "type": "address"
        }
      ],
      "name": "tokenWithdrawn",
      "outputs": [
        {
          "internalType": "bool",
          "name": "",
          "type": "bool"
        }
      ],
      "stateMutability": "view",
      "type": "function"
    },
    {
      "inputs": [
        {
          "internalType": "address",
          "name": "token",
          "type": "address"
        },
        {
          "internalType": "uint256",
          "name": "_campaignId",
          "type": "uint256"
        }
      ],
      "name": "withdrawFunds",
      "outputs": [],
      "stateMutability": "nonpayable",
      "type": "function"
    }
  ],
  "bytecode": "0x6080604052346101745760016000818155600391909155338152600080516020613516833981519152602052604090205460ff1615610134575b60008052600260205261006c337fac33ff75c19e70fe83507db0d683fd3465c996598dc972688b7ace676c89077b610179565b50336000908152600080516020613556833981519152602052604090205460ff16156100e4575b60008051602061353683398151915260005260026020526100d4337fc1a6e895672c1b82ff4dbe9e09a09d3f1019671731e9af48328cb178e031cec5610179565b506040516132ec908161020a8239f35b33600081815260008051602061355683398151915260205260408120805460ff191660011790558190600080516020613536833981519152906000805160206134f68339815191529080a4610093565b33600081815260008051602061351683398151915260205260408120805460ff1916600117905581906000805160206134f68339815191528180a4610039565b600080fd5b6001810190826000528160205260406000205415600014610201578054680100000000000000008110156101eb57600181018083558110156101d557839082600052602060002001555491600052602052604060002055600190565b634e487b7160e01b600052603260045260246000fd5b634e487b7160e01b600052604160045260246000fd5b50505060009056fe608080604052600436101561001357600080fd5b60003560e01c90816301ffc9a71461221157508063024ece891461217d57806306db57bb1461211c578063141961bc146120e3578063248a9ca3146120b65780632f2ff15d14611fd557806336568abe14611f4357806338e7a81314611ea757806345598b4a14611c935780635167642f14611b77578063564a7ac114611b2f5780635a3915cd146117a35780637f5d25ed1461173c57806384fdb39f1461153457806386cdf6041461144a5780638aaa2284146113245780638ab9b92a146112a15780638c7bc838146112825780639010d07c1461125457806390469a9d146110b057806391d148541461106357806393f0fac31461100d578063a217fddf14610ff1578063a318f26914610b44578063afbbc68514610ae2578063b9c3f38f1461097f578063bbb858f914610932578063c10753291461044c578063c2840e6014610411578063c36dd739146103cf578063c7fe4e5414610394578063ca15c87314610368578063d547741f14610321578063d567f1ae146102b8578063e6ffcaa1146101ef5763e744092e146101ab57600080fd5b346101ea5760203660031901126101ea576001600160a01b036101cc612510565b166000526006602052602060ff604060002054166040519015158152f35b600080fd5b346101ea5760203660031901126101ea5760043560006101a060405161021481612346565b82815260606020820152606060408201528260608201528260808201528260a08201528260c08201528260e08201528261010082015282610120820152826101408201528261016082015282610180820152015280600052600460205261028860ff60096040600020015460081c16612698565b60005260046020526102b46102a0604060002061275a565b604051918291602083526020830190612526565b0390f35b346101ea5760403660031901126101ea576004356102d46124fa565b908060005260046020526102f560ff60096040600020015460081c16612698565b600052600560205260406000209060018060a01b03166000526020526020604060002054604051908152f35b346101ea5760403660031901126101ea576103666004356103406124fa565b9061036161035c82600052600160205260016040600020015490565b612c5b565b612c9b565b005b346101ea5760203660031901126101ea5760043560005260026020526020604060002054604051908152f35b346101ea5760003660031901126101ea5760206040517faabecfdf6c789f9fb8a93bd3a33e66be61c9d95c3d88fbe57f4acd20b6d738f88152f35b346101ea5760203660031901126101ea57600435600b548110156101ea576103f8602091612665565b905460405160039290921b1c6001600160a01b03168152f35b346101ea5760003660031901126101ea5760206040517f74f7a545c65c11839a48d7453738b30c295408df2d944516167556759ddc6d068152f35b346101ea5760403660031901126101ea57610465612510565b602435610470612d44565b8060005260046020526040600020906009820191825461049560ff8260081c16612698565b60038201546001600160a01b031633036108ed5760ff8160101c166108a85760ff6104c49160181c16156126fc565b3360009081527f784e90e9391a28f47d0c60a6cfbef062c12baabe6c9d4b9bc5900febabcc9218602052604090205460ff161561087257816000526009602052604060002060018060a01b03851660005260205260ff6040600020541661082d5760058101546004820154811090600883015442119081610823575b5081159161081b575b50156107e057816000526005602052604060002060018060a01b03851660005260205260406000205490811561078f57806006600a920161058b848254612740565b90550192428455826000526009602052604060002060018060a01b0386166000526020526040600020600160ff19825416179055826000526005602052604060002060018060a01b03861660005260205260006040812055600190816000600b54905b818110610737575b5050610722575b5060005b600a548110156106f35783610615826122bb565b50541461062457600101610601565b6106b392917f9467881c16409d70790ef2aa073424972ede02854453f7ff5036d66e860ee42f94956006610657846122bb565b5001610664858254612740565b905554600a610672846122bb565b5001556106bd575b505b61069081336001600160a01b038816612d9a565b604080516001600160a01b03909616865260208601919091523394918291820190565b0390a36001600055005b6106e38160096106cd81946122bb565b5001805462ff00001916620100001790556122bb565b5001805460ff191690558561067a565b50507f9467881c16409d70790ef2aa073424972ede02854453f7ff5036d66e860ee42f9192506106b39061067c565b805462ff00ff191662010000179055856105fd565b90915085600052600560205260408060002061075283612665565b905460039190911b1c6001600160a01b031660009081526020919091522054610780576001019083916105ee565b505090506000908187806105f6565b60405162461bcd60e51b815260206004820152602360248201527f4e6f2066756e647320746f20776974686472617720666f72207468697320746f60448201526235b2b760e91b6064820152608490fd5b60405162461bcd60e51b815260206004820152601360248201527210d85b9b9bdd081dda5d1a191c985dc81e595d606a1b6044820152606490fd5b905085610549565b9050151586610540565b60405162461bcd60e51b815260206004820152601760248201527f546f6b656e20616c72656164792077697468647261776e0000000000000000006044820152606490fd5b60405162461bcd60e51b815260206004820152600e60248201526d139bdd08185d5d1a1bdc9a5e995960921b6044820152606490fd5b60405162461bcd60e51b815260206004820152601c60248201527f5769746864726177616c20616c726561647920636f6d706c65746564000000006044820152606490fd5b60405162461bcd60e51b815260206004820152601960248201527f4f6e6c792063726561746f722063616e207769746864726177000000000000006044820152606490fd5b346101ea5760403660031901126101ea5761094b6124fa565b600435600052600960205260406000209060018060a01b0316600052602052602060ff604060002054166040519015158152f35b346101ea5760203660031901126101ea576004358060005260046020526109b360ff60096040600020015460081c16612698565b600b54906109c0826126e4565b916109ce6040519384612363565b808352601f196109dd826126e4565b013660208501376109ed816126e4565b906109fb6040519283612363565b808252610a07816126e4565b602083019390601f190136853760005b828110610a7457610a3a868686602060405194859460408652604086019061227e565b9184830382860152519182815201919060005b818110610a5b575050500390f35b8251845285945060209384019390920191600101610a4d565b80610a80600192612665565b838060a01b0391549060031b1c16610a988289612b2e565b52826000526005602052604080600020610ab183612665565b858060a01b0391549060031b1c1690600091858060a01b031682526020522054610adb8287612b2e565b5201610a17565b346101ea5760403660031901126101ea576024356004356000526007602052604060002080548210156101ea57606091610b1b91612649565b5060018060a01b0381541690600260018201549101549060405192835260208301526040820152f35b346101ea5760803660031901126101ea5760043567ffffffffffffffff81116101ea57610b75903690600401612602565b60243567ffffffffffffffff81116101ea57610b95903690600401612602565b906044359060643592815115610fb5578215610f6257831593841580610f56575b15610f1e576003549485600052600460205260ff60096040600020015460081c16610ed95762015180820291820462015180141715610dd857610bf99042612740565b916301e133804201804211610dd8578311610ea05760405191610c1b83612346565b8583528160208401526040830152336060830152836080830152600060a0830152600060c08301524260e083015282610100830152600161012083015260016101408301526000610160830152600061018083015260006101a0830152846000526004602052610c8f82604060002061281d565b600a54600160401b811015610e8a57806001610cae9201600a556122bb565b939093610e7457610ce17fdc26653af5b99b2da33e2ad69ee6600d9aeccc82b034501db4338309615ca23893879561281d565b3360009081527f784e90e9391a28f47d0c60a6cfbef062c12baabe6c9d4b9bc5900febabcc9218602052604090205460ff1615610dee575b7faabecfdf6c789f9fb8a93bd3a33e66be61c9d95c3d88fbe57f4acd20b6d738f86000526002602052610d6c337f71b07659161a81cd77b65506fefc1d8d5d44ae7defc651df924a4d72066ac4cd6130ef565b50610da96040519233867f883479554ab3934aa8f7a2a39a33bbf02dad4d1ba4544a7ac9bae6d0537ed57d600080a360608452606084019061244c565b94602083015260408201528033940390a3600354906000198214610dd857600160209201600355604051908152f35b634e487b7160e01b600052601160045260246000fd5b3360008181527f784e90e9391a28f47d0c60a6cfbef062c12baabe6c9d4b9bc5900febabcc921860205260408120805460ff1916600117905581907faabecfdf6c789f9fb8a93bd3a33e66be61c9d95c3d88fbe57f4acd20b6d738f8907f2f8788117e7eff1d82e926ec794901d17c78024a50270940304540a733656f0d9080a4610d19565b634e487b7160e01b600052600060045260246000fd5b634e487b7160e01b600052604160045260246000fd5b60405162461bcd60e51b81526020600482015260116024820152704475726174696f6e20746f6f206c6f6e6760781b6044820152606490fd5b60405162461bcd60e51b815260206004820152601760248201527f43616d706169676e20616c7265616479206578697374730000000000000000006044820152606490fd5b60405162461bcd60e51b815260206004820152601060248201526f24b73b30b634b210323ab930ba34b7b760811b6044820152606490fd5b5061016d811115610bb6565b60405162461bcd60e51b815260206004820152602560248201527f476f616c20616d6f756e74206d7573742062652067726561746572207468616e604482015264207a65726f60d81b6064820152608490fd5b60405162461bcd60e51b81526020600482015260146024820152734e616d652063616e6e6f7420626520656d70747960601b6044820152606490fd5b346101ea5760003660031901126101ea57602060405160008152f35b346101ea5760203660031901126101ea576004356000526004602052602061105b61103b604060002061275a565b61104b6101408201511515612698565b60c060a08201519101519061274d565b604051908152f35b346101ea5760403660031901126101ea5761107c6124fa565b600435600052600160205260406000209060018060a01b0316600052602052602060ff604060002054166040519015158152f35b346101ea5760203660031901126101ea576110c9612510565b6110d1612b42565b6001600160a01b031660008181526006602052604090205460ff161561120f5760005b600b549081811015611208578261110a82612665565b905460039190911b1c6001600160a01b03161461112b5760019150016110f4565b6000198201918211610dd85761115e61114661118293612665565b905460039190911b1c6001600160a01b031691612665565b81546001600160a01b0393841660039290921b91821b9390911b1916919091179055565b600b5480156111f2576000190161119881612665565b81549060018060a01b039060031b1b19169055600b555b806000526006602052604060002060ff1981541690557f9a8e30a8658b96ab3f034ce4bac6806278b4aee5880ccdd1ac35e4ed5bb31d23602060405160008152a2005b634e487b7160e01b600052603160045260246000fd5b50506111af565b60405162461bcd60e51b815260206004820152601960248201527f546f6b656e206e6f7420696e20616c6c6f776564206c697374000000000000006044820152606490fd5b346101ea5760403660031901126101ea57600435600052600260205260206103f86024356040600020612680565b346101ea5760003660031901126101ea5760206040516301e133808152f35b346101ea5760203660031901126101ea57600435600052600460205260c06112cc604060002061275a565b6112dc6101408201511515612698565b60a081015182820151916112f0838361274d565b91610160608083015192015115159260405194828652602086015260408501528160608501521015608083015260a0820152f35b346101ea5760403660031901126101ea5761133d612510565b60243590811515908183036101ea57611354612b42565b6001600160a01b0381166000818152600660205260409020805460ff191660ff86151516179055926113af575b5060207f9a8e30a8658b96ab3f034ce4bac6806278b4aee5880ccdd1ac35e4ed5bb31d2391604051908152a2005b600b54906000805b838110611417575b50156113cc575b50611381565b9091600160401b831015610e8a5761141160209261115e8560017f9a8e30a8658b96ab3f034ce4bac6806278b4aee5880ccdd1ac35e4ed5bb31d239701600b55612665565b916113c6565b8561142182612665565b905460039190911b1c6001600160a01b031614611440576001016113b7565b50506001856113bf565b346101ea5760003660031901126101ea57600a54611467816126e4565b906114756040519283612363565b808252602082019081600a6000527fc65a7bb8d6351c1cf70c95a316cc6a92839c986682d98bc35f958f4883f9d2a86000915b83831061151657848660405191829160208301906020845251809152604083019060408160051b85010192916000905b8282106114e757505050500390f35b919360019193955060206115068192603f198a82030186528851612526565b96019201920185949391926114d8565b600b60206001926115268561275a565b8152019201920191906114a8565b346101ea5760403660031901126101ea576004356115506124fa565b90611559612d44565b80600052600460205260406000209060ff600983015460181c16156116f757600081815260086020908152604080832033845282528083206001600160a01b03871684529091529020549182156116ba576005908260005281602052604060002060018060a01b03861660005260205260406000206115d985825461274d565b9055016115e783825461274d565b9055600081815260086020908152604080832033845282528083206001600160a01b038716845290915281208190555b600a5481101561168e578161162b826122bb565b50541461163a57600101611617565b7f0871598c62fbea849824d5895fc3129036798cca146dbf42e3284d97c284597f9192600561166b6106b3936122bb565b500161167882825461274d565b905561069081336001600160a01b038816612d9a565b50906106b37f0871598c62fbea849824d5895fc3129036798cca146dbf42e3284d97c284597f9161067c565b60405162461bcd60e51b8152602060048201526015602482015274139bc8191bdb985d1a5bdb881d1bc81c99599d5b99605a1b6044820152606490fd5b60405162461bcd60e51b815260206004820152601960248201527f43616d706169676e206973206e6f742063616e63656c6c6564000000000000006044820152606490fd5b346101ea5760603660031901126101ea576117556124fa565b604435906001600160a01b03821682036101ea5760043560009081526008602090815260408083206001600160a01b0394851684528252808320949093168252928352819020549051908152f35b346101ea5760603660031901126101ea576117bc612510565b6044356024356117ca612d44565b6001600160a01b03831660008181526006602052604090205460ff1615611af45781600052600460205261180b60ff60096040600020015460081c16612698565b8215611a9d5781600052600460205260ff6009604060002001541615611a5f5781600052600460205261184c60ff60096040600020015460181c16156126fc565b8160005260046020526008604060002001544211611a255761189e6040516323b872dd60e01b602082015233602482015230604482015284606482015260648152611898608482612363565b82612dd6565b81600052600460205260056040600020016118ba848254612740565b905581600052600560205260406000208160005260205260406000206118e1848254612740565b905560008281526008602090815260408083203384528252808320938352929052208054611910908490612740565b905560005b600a54811015611a1e5781611929826122bb565b50541461193857600101611915565b6119466005919392936122bb565b5001611953828254612740565b90555b816000526007602052604060002090604051906119728261232a565b338252602082019181835260408101934285528054600160401b811015610e8a576119a291600182018155612649565b919091610e74575181546001600160a01b0319166001600160a01b0391821617825592516001820155925160029093019290925560408051949091168452602084019190915233927f72ea702afc24965f735ac4ac552f859b352084ad99f47a425a691630814014fe9190a36001600055602060405160018152f35b5090611956565b60405162461bcd60e51b815260206004820152601260248201527110d85b5c185a59db881a185cc8195b99195960721b6044820152606490fd5b60405162461bcd60e51b815260206004820152601660248201527543616d706169676e206973206e6f742061637469766560501b6044820152606490fd5b60405162461bcd60e51b815260206004820152602960248201527f446f6e6174696f6e20616d6f756e74206d7573742062652067726561746572206044820152687468616e207a65726f60b81b6064820152608490fd5b60405162461bcd60e51b8152602060048201526013602482015272151bdad95b881b9bdd081cdd5c1c1bdc9d1959606a1b6044820152606490fd5b346101ea5760403660031901126101ea57611b486124fa565b600435600052600560205260406000209060018060a01b03166000526020526020604060002054604051908152f35b346101ea5760203660031901126101ea57600435806000526004602052611bab60ff60096040600020015460081c16612698565b60005260076020526040600020805490611bc4826126e4565b91611bd26040519384612363565b80835260208301809260005260206000206000915b838310611c555784866040519182916020830190602084525180915260408301919060005b818110611c1a575050500390f35b825180516001600160a01b03168552602081810151818701526040918201519186019190915286955060609094019390920191600101611c0c565b60036020600192604051611c688161232a565b848060a01b038654168152848601548382015260028601546040820152815201920192019190611be7565b346101ea5760203660031901126101ea5760043580600052600460205260406000206009810190815490611ccc60ff8360081c16612698565b600301546001600160a01b031633148015611e6f575b15611e2a5760ff8160101c16611dd75760ff8160181c16611d925763ff0000ff1916630100000017905560005b600a54811015611d8c5781611d23826122bb565b505414611d3257600101611d0f565b611d5a816009611d4281946122bb565b5001805463ff000000191663010000001790556122bb565b5001805460ff191690555b7f403b6718db13878ac16c27decb08f09d3a10f116c7c25af575ff5bfbc11ae9e6600080a2005b50611d65565b60405162461bcd60e51b815260206004820152601a60248201527f43616d706169676e20616c72656164792063616e63656c6c65640000000000006044820152606490fd5b60405162461bcd60e51b815260206004820152602560248201527f43616d706169676e20616c726561647920636f6d706c657465642077697468646044820152641c985dd85b60da1b6064820152608490fd5b60405162461bcd60e51b815260206004820152601860248201527f4e6f7420617574686f72697a656420746f2063616e63656c00000000000000006044820152606490fd5b503360009081527fa6eef7e35abe7026729641147f7915573c7e97b47efa546f5f6e3230263bcb49602052604090205460ff16611ce2565b346101ea5760203660031901126101ea576004356000526004602052604060002080546102b4611ed960018401612385565b611ee560028501612385565b9060018060a01b036003860154169360048601549560058101549360068201546007830154600884015491600a6009860154950154976040519b8c9b8c9660ff8960181c169a60ff8a60101c169a60ff808c60081c169b1699612471565b346101ea5760403660031901126101ea57611f5c6124fa565b336001600160a01b03821603611f785761036690600435612c9b565b60405162461bcd60e51b815260206004820152602f60248201527f416363657373436f6e74726f6c3a2063616e206f6e6c792072656e6f756e636560448201526e103937b632b9903337b91039b2b63360891b6064820152608490fd5b346101ea5760403660031901126101ea57610366600435611ff46124fa565b9061201061035c82600052600160205260016040600020015490565b806000526001602052604060002060018060a01b03831660005260205260ff604060002054161561205b575b60009081526002602052604090206001600160a01b03909116906130ef565b60008181526001602081815260408084206001600160a01b03871680865292528320805460ff1916909217909155339183907f2f8788117e7eff1d82e926ec794901d17c78024a50270940304540a733656f0d9080a461203c565b346101ea5760203660031901126101ea57602061105b600435600052600160205260016040600020015490565b346101ea5760203660031901126101ea57600435600a548110156101ea5761210a906122bb565b5080546102b4611ed960018401612385565b346101ea5760203660031901126101ea576020600435806000526004825261215160ff60096040600020015460081c16612698565b806000526004825260056040600020015490600052600482526004604060002001541115604051908152f35b346101ea5760003660031901126101ea57604051806020600b54918281520190600b6000527f0175b7a638427703f0dbe7bb9bbf987a2551717b34e79f33b5b1008d1fa01db99060005b8181106121f2576102b4856121de81870382612363565b60405191829160208352602083019061227e565b82546001600160a01b03168452602090930192600192830192016121c7565b346101ea5760203660031901126101ea576004359063ffffffff60e01b82168092036101ea57602091635a05180f60e01b8114908115612253575b5015158152f35b637965db0b60e01b81149150811561226d575b508361224c565b6301ffc9a760e01b14905083612266565b906020808351928381520192019060005b81811061229c5750505090565b82516001600160a01b031684526020938401939092019160010161228f565b600a548110156122da57600a600052600b602060002091020190600090565b634e487b7160e01b600052603260045260246000fd5b90600182811c92168015612320575b602083101461230a57565b634e487b7160e01b600052602260045260246000fd5b91607f16916122ff565b6060810190811067ffffffffffffffff821117610e8a57604052565b6101c0810190811067ffffffffffffffff821117610e8a57604052565b90601f8019910116810190811067ffffffffffffffff821117610e8a57604052565b9060405191826000825492612399846122f0565b808452936001811690811561240757506001146123c0575b506123be92500383612363565b565b90506000929192526020600020906000915b8183106123eb5750509060206123be92820101386123b1565b60209193508060019154838589010152019101909184926123d2565b9050602092506123be94915060ff191682840152151560051b820101386123b1565b60005b83811061243c5750506000910152565b818101518382015260200161242c565b9060209161246581518092818552858086019101612429565b601f01601f1916010190565b9a97949192939e9d9c99969361249e6101a09d9a97946101c08e6124ac958152816020820152019061244c565b8c810360408e01529061244c565b6001600160a01b03909e1660608b015260808a015260a089015260c088015260e087015261010086015215156101208501521515610140840152151561016083015215156101808201520152565b602435906001600160a01b03821682036101ea57565b600435906001600160a01b03821682036101ea57565b90815181526101a08061255f61254d60208601516101c060208701526101c086019061244c565b6040860151858203604087015261244c565b9360018060a01b0360608201511660608501526080810151608085015260a081015160a085015260c081015160c085015260e081015160e08501526101008101516101008501526101208101511515610120850152610140810151151561014085015261016081015115156101608501526101808101511515610180850152015191015290565b67ffffffffffffffff8111610e8a57601f01601f191660200190565b81601f820112156101ea57803590612619826125e6565b926126276040519485612363565b828452602083830101116101ea57816000926020809301838601378301015290565b80548210156122da576000526003602060002091020190600090565b600b548110156122da57600b60005260206000200190600090565b80548210156122da5760005260206000200190600090565b1561269f57565b60405162461bcd60e51b815260206004820152601760248201527f43616d706169676e20646f6573206e6f742065786973740000000000000000006044820152606490fd5b67ffffffffffffffff8111610e8a5760051b60200190565b1561270357565b60405162461bcd60e51b815260206004820152601560248201527410d85b5c185a59db881a5cc818d85b98d95b1b1959605a1b6044820152606490fd5b91908201809211610dd857565b91908203918211610dd857565b9060405161276781612346565b6101a0600a82948054845261277e60018201612385565b602085015261278f60028201612385565b604085015260038101546001600160a01b0316606085015260048101546080850152600581015460a0850152600681015460c0850152600781015460e0850152600880820154610100860152600982015460ff81811615156101208801529181901c82161515610140870152601081901c8216151561016087015260181c1615156101808501520154910152565b908051825560018201602082015180519067ffffffffffffffff8211610e8a57819061284984546122f0565b601f8111612adb575b50602090601f8311600114612a7657600092612a6b575b50508160011b916000199060031b1c19161790555b60028201604082015180519067ffffffffffffffff8211610e8a576128a383546122f0565b601f8111612a23575b50602090601f83116001146129b55791806101a09492600a96946000926129aa575b50508160011b916000199060031b1c19161790555b60608101516003850180546001600160a01b039092166001600160a01b03199092169190911790556080810151600485015560a0810151600585015560c0810151600685015560e08101516007850155610100810151600885015561012081015160098501805460ff191691151560ff16919091178155610140820151815461016084015161018085015163ffffff001990921692151560081b61ff00169290921791151560101b62ff0000169190911790151560181b63ff000000161790550151910155565b0151905038806128ce565b90601f1983169184600052816000209260005b818110612a0b5750926001928592600a98966101a09896106129f2575b505050811b0190556128e3565b015160001960f88460031b161c191690553880806129e5565b929360206001819287860151815501950193016129c8565b836000526020600020601f840160051c81019160208510612a61575b601f0160051c01905b818110612a5557506128ac565b60008155600101612a48565b9091508190612a3f565b015190503880612869565b60008581528281209350601f198516905b818110612ac35750908460019594939210612aaa575b505050811b01905561287e565b015160001960f88460031b161c19169055388080612a9d565b92936020600181928786015181550195019301612a87565b909150836000526020600020601f840160051c81019160208510612b24575b90601f859493920160051c01905b818110612b155750612852565b60008155849350600101612b08565b9091508190612afa565b80518210156122da5760209160051b010190565b3360009081527f261f38ed31dd4bd25aa17975edf3828538749fd9d58ca868b5621243e6fac21f602052604090205460ff1615612b7b57565b612c57612b8733612f03565b612c376011612bb57f74f7a545c65c11839a48d7453738b30c295408df2d944516167556759ddc6d06613043565b9260376040519485927f416363657373436f6e74726f6c3a206163636f756e74200000000000000000006020850152612bf78151809260208688019101612429565b83017001034b99036b4b9b9b4b733903937b6329607d1b83820152612c26825180936020604885019101612429565b01010301601f198101835282612363565b60405162461bcd60e51b815260206004820152918291602483019061244c565b0390fd5b600081815260016020908152604080832033845290915290205460ff1615612c805750565b612c5790612c376011612bb5612c9533612f03565b93613043565b90612cea91806000526001602052604060002060018060a01b03831660005260205260ff60406000205416612ced575b60009081526002602052604090206001600160a01b0390911690613160565b50565b60008181526001602090815260408083206001600160a01b03861680855292528220805460ff19169055339183907ff6391f5c32d9c69d2a47ea670b442974b53935d1edc7fd64eb21e047a839171b9080a4612ccb565b600260005414612d55576002600055565b60405162461bcd60e51b815260206004820152601f60248201527f5265656e7472616e637947756172643a207265656e7472616e742063616c6c006044820152606490fd5b60405163a9059cbb60e01b60208201526001600160a01b039290921660248301526044808301939093529181526123be91612dd6606483612363565b604080519092612e5a926001600160a01b0316906000908190612df98786612363565b602085527f5361666545524332303a206c6f772d6c6576656c2063616c6c206661696c6564602086015260208151910182855af13d15612eea573d91612e3e836125e6565b92612e4b87519485612363565b83523d6000602085013e61321d565b8051908115918215612ec7575b505015612e715750565b5162461bcd60e51b815260206004820152602a60248201527f5361666545524332303a204552433230206f7065726174696f6e20646964206e6044820152691bdd081cdd58d8d9595960b21b6064820152608490fd5b81925090602091810103126101ea576020015180151581036101ea573880612e67565b60609161321d565b9081518110156122da570160200190565b600090612f10602a6125e6565b91612f1e6040519384612363565b602a8352612f2c602a6125e6565b6020840190601f190136823783511561302f576030905382516001101561301b576078602184015350602960005b60018211612faf575050612f6b5790565b606460405162461bcd60e51b815260206004820152602060248201527f537472696e67733a20686578206c656e67746820696e73756666696369656e746044820152fd5b9091600f81166010811015613007576f181899199a1a9b1b9c1cb0b131b232b360811b901a612fde8486612ef2565b5360041c918015612ff3576000190190612f5a565b634e487b7160e01b82526011600452602482fd5b634e487b7160e01b83526032600452602483fd5b634e487b7160e01b81526032600452602490fd5b634e487b7160e01b82526032600452602482fd5b60009061305060426125e6565b9161305e6040519384612363565b6042835261306c60426125e6565b6020840190601f190136823783511561302f576030905382516001101561301b576078602184015350604160005b600182116130ab575050612f6b5790565b9091600f81166010811015613007576f181899199a1a9b1b9c1cb0b131b232b360811b901a6130da8486612ef2565b5360041c918015612ff357600019019061309a565b6001810190826000528160205260406000205415600014613158578054600160401b811015610e8a5761314361312c826001879401855584612680565b819391549060031b91821b91600019901b19161790565b90555491600052602052604060002055600190565b505050600090565b9060018201918160005282602052604060002054801515600014613214576000198101818111610dd8578254600019810191908211610dd8578082036131dd575b505050805480156111f25760001901906131bb8282612680565b8154906000199060031b1b191690555560005260205260006040812055600190565b6131fd6131ed61312c9386612680565b90549060031b1c92839286612680565b9055600052836020526040600020553880806131a1565b50505050600090565b9192901561327f5750815115613231575090565b3b1561323a5790565b60405162461bcd60e51b815260206004820152601d60248201527f416464726573733a2063616c6c20746f206e6f6e2d636f6e74726163740000006044820152606490fd5b8251909150156132925750805190602001fd5b60405162461bcd60e51b815260206004820152908190612c5790602483019061244c56fea26469706673582212209e11fa725b5c8f7a32e06b26e43f8b7ceb702e485dd0fb80a916f39968b3f07764736f6c634300081b00332f8788117e7eff1d82e926ec794901d17c78024a50270940304540a733656f0da6eef7e35abe7026729641147f7915573c7e97b47efa546f5f6e3230263bcb4974f7a545c65c11839a48d7453738b30c295408df2d944516167556759ddc6d06261f38ed31dd4bd25aa17975edf3828538749fd9d58ca868b5621243e6fac21f",
  "linkReferences": {},
  "deployedLinkReferences": {}
}